{
  "contractName": "Dex",
  "abi": [
    {
      "anonymous": false,
      "inputs": [
        {
          "indexed": true,
          "internalType": "address",
          "name": "previousOwner",
          "type": "address"
        },
        {
          "indexed": true,
          "internalType": "address",
          "name": "newOwner",
          "type": "address"
        }
      ],
      "name": "OwnershipTransferred",
      "type": "event"
    },
    {
      "inputs": [
        {
          "internalType": "bytes32",
          "name": "ticker",
          "type": "bytes32"
        },
        {
          "internalType": "address",
          "name": "tokenAddress",
          "type": "address"
        }
      ],
      "name": "addToken",
      "outputs": [],
      "stateMutability": "nonpayable",
      "type": "function"
    },
    {
      "inputs": [
        {
          "internalType": "uint256",
          "name": "amount",
          "type": "uint256"
        },
        {
          "internalType": "bytes32",
          "name": "ticker",
          "type": "bytes32"
        }
      ],
      "name": "deposit",
      "outputs": [],
      "stateMutability": "nonpayable",
      "type": "function"
    },
    {
      "inputs": [
        {
          "internalType": "bytes32",
          "name": "",
          "type": "bytes32"
        },
        {
          "internalType": "uint256",
          "name": "",
          "type": "uint256"
        },
        {
          "internalType": "uint256",
          "name": "",
          "type": "uint256"
        }
      ],
      "name": "orderBook",
      "outputs": [
        {
          "internalType": "uint256",
          "name": "id",
          "type": "uint256"
        },
        {
          "internalType": "address",
          "name": "trader",
          "type": "address"
        },
        {
          "internalType": "bool",
          "name": "isBuy",
          "type": "bool"
        },
        {
          "internalType": "bytes32",
          "name": "tokenTicker",
          "type": "bytes32"
        },
        {
          "internalType": "uint256",
          "name": "amount",
          "type": "uint256"
        },
        {
          "internalType": "uint256",
          "name": "price",
          "type": "uint256"
        }
      ],
      "stateMutability": "view",
      "type": "function",
      "constant": true
    },
    {
      "inputs": [],
      "name": "owner",
      "outputs": [
        {
          "internalType": "address",
          "name": "",
          "type": "address"
        }
      ],
      "stateMutability": "view",
      "type": "function",
      "constant": true
    },
    {
      "inputs": [],
      "name": "renounceOwnership",
      "outputs": [],
      "stateMutability": "nonpayable",
      "type": "function"
    },
    {
      "inputs": [
        {
          "internalType": "address",
          "name": "",
          "type": "address"
        },
        {
          "internalType": "bytes32",
          "name": "",
          "type": "bytes32"
        }
      ],
      "name": "tokenBalances",
      "outputs": [
        {
          "internalType": "uint256",
          "name": "",
          "type": "uint256"
        }
      ],
      "stateMutability": "view",
      "type": "function",
      "constant": true
    },
    {
      "inputs": [
        {
          "internalType": "uint256",
          "name": "",
          "type": "uint256"
        }
      ],
      "name": "tokenList",
      "outputs": [
        {
          "internalType": "bytes32",
          "name": "",
          "type": "bytes32"
        }
      ],
      "stateMutability": "view",
      "type": "function",
      "constant": true
    },
    {
      "inputs": [
        {
          "internalType": "bytes32",
          "name": "",
          "type": "bytes32"
        }
      ],
      "name": "tokens",
      "outputs": [
        {
          "internalType": "bytes32",
          "name": "ticker",
          "type": "bytes32"
        },
        {
          "internalType": "address",
          "name": "tokenAddress",
          "type": "address"
        }
      ],
      "stateMutability": "view",
      "type": "function",
      "constant": true
    },
    {
      "inputs": [
        {
          "internalType": "address",
          "name": "newOwner",
          "type": "address"
        }
      ],
      "name": "transferOwnership",
      "outputs": [],
      "stateMutability": "nonpayable",
      "type": "function"
    },
    {
      "inputs": [
        {
          "internalType": "uint256",
          "name": "amount",
          "type": "uint256"
        },
        {
          "internalType": "bytes32",
          "name": "ticker",
          "type": "bytes32"
        }
      ],
      "name": "withdraw",
      "outputs": [],
      "stateMutability": "nonpayable",
      "type": "function"
    },
    {
      "inputs": [
        {
          "internalType": "bytes32",
          "name": "ticker",
          "type": "bytes32"
        },
        {
          "internalType": "enum Dex.buyOrSell",
          "name": "buyorsell",
          "type": "uint8"
        }
      ],
      "name": "getOrderBook",
      "outputs": [
        {
          "components": [
            {
              "internalType": "uint256",
              "name": "id",
              "type": "uint256"
            },
            {
              "internalType": "address",
              "name": "trader",
              "type": "address"
            },
            {
              "internalType": "bool",
              "name": "isBuy",
              "type": "bool"
            },
            {
              "internalType": "bytes32",
              "name": "tokenTicker",
              "type": "bytes32"
            },
            {
              "internalType": "uint256",
              "name": "amount",
              "type": "uint256"
            },
            {
              "internalType": "uint256",
              "name": "price",
              "type": "uint256"
            }
          ],
          "internalType": "struct Dex.Order[]",
          "name": "",
          "type": "tuple[]"
        }
      ],
      "stateMutability": "view",
      "type": "function",
      "constant": true
    }
  ],
  "bytecode": "0x608060405234801561001057600080fd5b5060006100216100c460201b60201c565b9050806000806101000a81548173ffffffffffffffffffffffffffffffffffffffff021916908373ffffffffffffffffffffffffffffffffffffffff1602179055508073ffffffffffffffffffffffffffffffffffffffff16600073ffffffffffffffffffffffffffffffffffffffff167f8be0079c531659141344cd1fd0a4f28419497f9722a3daafe3b4186f6b6457e060405160405180910390a3506100cc565b600033905090565b6116ee806100db6000396000f3fe608060405234801561001057600080fd5b50600436106100a95760003560e01c80639ead7222116100715780639ead722214610158578063a8d2021a14610188578063ba58ea68146101a4578063c9630cb0146101d4578063d520d23c146101f0578063f2fde38b14610220576100a9565b80630bb431b6146100ae578063715018a6146100e35780638da5cb5b146100ed578063904194a31461010b5780639776aacf1461013c575b600080fd5b6100c860048036038101906100c39190610fa7565b61023c565b6040516100da969594939291906113cc565b60405180910390f35b6100eb6102cf565b005b6100f5610409565b6040516101029190611250565b60405180910390f35b61012560048036038101906101209190610f06565b610432565b604051610133929190611308565b60405180910390f35b61015660048036038101906101519190610f2f565b610476565b005b610172600480360381019061016d9190610ff6565b6105b1565b60405161017f91906112ed565b60405180910390f35b6101a2600480360381019061019d919061101f565b6105d5565b005b6101be60048036038101906101b99190610f6b565b61088f565b6040516101cb91906112cb565b60405180910390f35b6101ee60048036038101906101e9919061101f565b6109e4565b005b61020a60048036038101906102059190610ea1565b610c0d565b60405161021791906113b1565b60405180910390f35b61023a60048036038101906102359190610e78565b610c32565b005b6004602052826000526040600020602052816000526040600020818154811061026457600080fd5b906000526020600020906005020160009250925050508060000154908060010160009054906101000a900473ffffffffffffffffffffffffffffffffffffffff16908060010160149054906101000a900460ff16908060020154908060030154908060040154905086565b6102d7610ddb565b73ffffffffffffffffffffffffffffffffffffffff166102f5610409565b73ffffffffffffffffffffffffffffffffffffffff161461034b576040517f08c379a000000000000000000000000000000000000000000000000000000000815260040161034290611371565b60405180910390fd5b600073ffffffffffffffffffffffffffffffffffffffff1660008054906101000a900473ffffffffffffffffffffffffffffffffffffffff1673ffffffffffffffffffffffffffffffffffffffff167f8be0079c531659141344cd1fd0a4f28419497f9722a3daafe3b4186f6b6457e060405160405180910390a360008060006101000a81548173ffffffffffffffffffffffffffffffffffffffff021916908373ffffffffffffffffffffffffffffffffffffffff160217905550565b60008060009054906101000a900473ffffffffffffffffffffffffffffffffffffffff16905090565b60016020528060005260406000206000915090508060000154908060010160009054906101000a900473ffffffffffffffffffffffffffffffffffffffff16905082565b61047e610ddb565b73ffffffffffffffffffffffffffffffffffffffff1661049c610409565b73ffffffffffffffffffffffffffffffffffffffff16146104f2576040517f08c379a00000000000000000000000000000000000000000000000000000000081526004016104e990611371565b60405180910390fd5b60405180604001604052808381526020018273ffffffffffffffffffffffffffffffffffffffff16815250600160008481526020019081526020016000206000820151816000015560208201518160010160006101000a81548173ffffffffffffffffffffffffffffffffffffffff021916908373ffffffffffffffffffffffffffffffffffffffff16021790555090505060028290806001815401808255809150506001900390600052602060002001600090919091909150555050565b600281815481106105c157600080fd5b906000526020600020016000915090505481565b80600073ffffffffffffffffffffffffffffffffffffffff166001600083815260200190815260200160002060010160009054906101000a900473ffffffffffffffffffffffffffffffffffffffff1673ffffffffffffffffffffffffffffffffffffffff16141561067c576040517f08c379a000000000000000000000000000000000000000000000000000000000815260040161067390611391565b60405180910390fd5b82600360003373ffffffffffffffffffffffffffffffffffffffff1673ffffffffffffffffffffffffffffffffffffffff168152602001908152602001600020600084815260200190815260200160002054101561070f576040517f08c379a000000000000000000000000000000000000000000000000000000000815260040161070690611351565b60405180910390fd5b6001600083815260200190815260200160002060010160009054906101000a900473ffffffffffffffffffffffffffffffffffffffff1673ffffffffffffffffffffffffffffffffffffffff1663a9059cbb33856040518363ffffffff1660e01b81526004016107809291906112a2565b602060405180830381600087803b15801561079a57600080fd5b505af11580156107ae573d6000803e3d6000fd5b505050506040513d601f19601f820116820180604052508101906107d29190610edd565b5061083683600360003373ffffffffffffffffffffffffffffffffffffffff1673ffffffffffffffffffffffffffffffffffffffff168152602001908152602001600020600085815260200190815260200160002054610de390919063ffffffff16565b600360003373ffffffffffffffffffffffffffffffffffffffff1673ffffffffffffffffffffffffffffffffffffffff168152602001908152602001600020600084815260200190815260200160002081905550505050565b60606004600084815260200190815260200160002060008360018111156108df577f4e487b7100000000000000000000000000000000000000000000000000000000600052602160045260246000fd5b8152602001908152602001600020805480602002602001604051908101604052809291908181526020016000905b828210156109d857838290600052602060002090600502016040518060c0016040529081600082015481526020016001820160009054906101000a900473ffffffffffffffffffffffffffffffffffffffff1673ffffffffffffffffffffffffffffffffffffffff1673ffffffffffffffffffffffffffffffffffffffff1681526020016001820160149054906101000a900460ff1615151515815260200160028201548152602001600382015481526020016004820154815250508152602001906001019061090d565b50505050905092915050565b80600073ffffffffffffffffffffffffffffffffffffffff166001600083815260200190815260200160002060010160009054906101000a900473ffffffffffffffffffffffffffffffffffffffff1673ffffffffffffffffffffffffffffffffffffffff161415610a8b576040517f08c379a0000000000000000000000000000000000000000000000000000000008152600401610a8290611391565b60405180910390fd5b6001600083815260200190815260200160002060010160009054906101000a900473ffffffffffffffffffffffffffffffffffffffff1673ffffffffffffffffffffffffffffffffffffffff166323b872dd3330866040518463ffffffff1660e01b8152600401610afe9392919061126b565b602060405180830381600087803b158015610b1857600080fd5b505af1158015610b2c573d6000803e3d6000fd5b505050506040513d601f19601f82011682018060405250810190610b509190610edd565b50610bb483600360003373ffffffffffffffffffffffffffffffffffffffff1673ffffffffffffffffffffffffffffffffffffffff168152602001908152602001600020600085815260200190815260200160002054610df990919063ffffffff16565b600360003373ffffffffffffffffffffffffffffffffffffffff1673ffffffffffffffffffffffffffffffffffffffff168152602001908152602001600020600084815260200190815260200160002081905550505050565b6003602052816000526040600020602052806000526040600020600091509150505481565b610c3a610ddb565b73ffffffffffffffffffffffffffffffffffffffff16610c58610409565b73ffffffffffffffffffffffffffffffffffffffff1614610cae576040517f08c379a0000000000000000000000000000000000000000000000000000000008152600401610ca590611371565b60405180910390fd5b600073ffffffffffffffffffffffffffffffffffffffff168173ffffffffffffffffffffffffffffffffffffffff161415610d1e576040517f08c379a0000000000000000000000000000000000000000000000000000000008152600401610d1590611331565b60405180910390fd5b8073ffffffffffffffffffffffffffffffffffffffff1660008054906101000a900473ffffffffffffffffffffffffffffffffffffffff1673ffffffffffffffffffffffffffffffffffffffff167f8be0079c531659141344cd1fd0a4f28419497f9722a3daafe3b4186f6b6457e060405160405180910390a3806000806101000a81548173ffffffffffffffffffffffffffffffffffffffff021916908373ffffffffffffffffffffffffffffffffffffffff16021790555050565b600033905090565b60008183610df191906114cd565b905092915050565b60008183610e079190611477565b905092915050565b600081359050610e1e8161164c565b92915050565b600081519050610e3381611663565b92915050565b600081359050610e488161167a565b92915050565b600081359050610e5d81611691565b92915050565b600081359050610e72816116a1565b92915050565b600060208284031215610e8a57600080fd5b6000610e9884828501610e0f565b91505092915050565b60008060408385031215610eb457600080fd5b6000610ec285828601610e0f565b9250506020610ed385828601610e39565b9150509250929050565b600060208284031215610eef57600080fd5b6000610efd84828501610e24565b91505092915050565b600060208284031215610f1857600080fd5b6000610f2684828501610e39565b91505092915050565b60008060408385031215610f4257600080fd5b6000610f5085828601610e39565b9250506020610f6185828601610e0f565b9150509250929050565b60008060408385031215610f7e57600080fd5b6000610f8c85828601610e39565b9250506020610f9d85828601610e4e565b9150509250929050565b600080600060608486031215610fbc57600080fd5b6000610fca86828701610e39565b9350506020610fdb86828701610e63565b9250506040610fec86828701610e63565b9150509250925092565b60006020828403121561100857600080fd5b600061101684828501610e63565b91505092915050565b6000806040838503121561103257600080fd5b600061104085828601610e63565b925050602061105185828601610e39565b9150509250929050565b600061106783836111b7565b60c08301905092915050565b61107c81611501565b82525050565b61108b81611501565b82525050565b600061109c8261143d565b6110a68185611455565b93506110b18361142d565b8060005b838110156110e25781516110c9888261105b565b97506110d483611448565b9250506001810190506110b5565b5085935050505092915050565b6110f881611513565b82525050565b61110781611513565b82525050565b6111168161151f565b82525050565b6111258161151f565b82525050565b6000611138602683611466565b915061114382611582565b604082019050919050565b600061115b601483611466565b9150611166826115d1565b602082019050919050565b600061117e602083611466565b9150611189826115fa565b602082019050919050565b60006111a1601583611466565b91506111ac82611623565b602082019050919050565b60c0820160008201516111cd6000850182611232565b5060208201516111e06020850182611073565b5060408201516111f360408501826110ef565b506060820151611206606085018261110d565b5060808201516112196080850182611232565b5060a082015161122c60a0850182611232565b50505050565b61123b81611549565b82525050565b61124a81611549565b82525050565b60006020820190506112656000830184611082565b92915050565b60006060820190506112806000830186611082565b61128d6020830185611082565b61129a6040830184611241565b949350505050565b60006040820190506112b76000830185611082565b6112c46020830184611241565b9392505050565b600060208201905081810360008301526112e58184611091565b905092915050565b6000602082019050611302600083018461111c565b92915050565b600060408201905061131d600083018561111c565b61132a6020830184611082565b9392505050565b6000602082019050818103600083015261134a8161112b565b9050919050565b6000602082019050818103600083015261136a8161114e565b9050919050565b6000602082019050818103600083015261138a81611171565b9050919050565b600060208201905081810360008301526113aa81611194565b9050919050565b60006020820190506113c66000830184611241565b92915050565b600060c0820190506113e16000830189611241565b6113ee6020830188611082565b6113fb60408301876110fe565b611408606083018661111c565b6114156080830185611241565b61142260a0830184611241565b979650505050505050565b6000819050602082019050919050565b600081519050919050565b6000602082019050919050565b600082825260208201905092915050565b600082825260208201905092915050565b600061148282611549565b915061148d83611549565b9250827fffffffffffffffffffffffffffffffffffffffffffffffffffffffffffffffff038211156114c2576114c1611553565b5b828201905092915050565b60006114d882611549565b91506114e383611549565b9250828210156114f6576114f5611553565b5b828203905092915050565b600061150c82611529565b9050919050565b60008115159050919050565b6000819050919050565b600073ffffffffffffffffffffffffffffffffffffffff82169050919050565b6000819050919050565b7f4e487b7100000000000000000000000000000000000000000000000000000000600052601160045260246000fd5b7f4f776e61626c653a206e6577206f776e657220697320746865207a65726f206160008201527f6464726573730000000000000000000000000000000000000000000000000000602082015250565b7f496e73756666696369656e742062616c616e6365000000000000000000000000600082015250565b7f4f776e61626c653a2063616c6c6572206973206e6f7420746865206f776e6572600082015250565b7f546f6b656e20646f6573206e6f74206578697374730000000000000000000000600082015250565b61165581611501565b811461166057600080fd5b50565b61166c81611513565b811461167757600080fd5b50565b6116838161151f565b811461168e57600080fd5b50565b6002811061169e57600080fd5b50565b6116aa81611549565b81146116b557600080fd5b5056fea2646970667358221220e096c59d183a632425079b135fd6f435132dcf6f77a05871d76c7092bd86e09f64736f6c63430008040033",
  "immutableReferences": {},
  "source": "pragma solidity ^0.8.0;\nimport \"./Wallet.sol\";\n\ncontract Dex is Wallet {\n    struct Order {\n        uint256 id; // id in orders array\n        address trader; // traders address\n        bool isBuy; // sell or buy order => if isBuy is false then its a sell order\n        bytes32 tokenTicker; // token in order\n        uint256 amount;\n        uint256 price; // how much\n    }\n\n    enum buyOrSell {\n        // enum is a custom variable that can have different properties\n        BUY,\n        SELL\n    }\n\n    // We need one orderbook for each asset\n\n    mapping(bytes32 => mapping(uint256 => Order[])) public orderBook;\n\n    function getOrderBook(bytes32 ticker, buyOrSell buyorsell)\n        public\n        view\n        returns (Order[] memory)\n    {\n        return orderBook[ticker][uint256(buyorsell)];\n    }\n}\n",
  "sourcePath": "/Users/cryptogirl/Documents/Solidity/DEX/contracts/DEX.sol",
  "compiler": {
    "name": "solc",
    "version": "0.8.4+commit.c7e474f2.Emscripten.clang"
  },
  "schemaVersion": "3.3.3",
  "updatedAt": "2021-05-03T10:23:05.037Z",
  "networkType": "ethereum",
  "devdoc": {
    "kind": "dev",
    "methods": {
      "owner()": {
        "details": "Returns the address of the current owner."
      },
      "renounceOwnership()": {
        "details": "Leaves the contract without owner. It will not be possible to call `onlyOwner` functions anymore. Can only be called by the current owner. NOTE: Renouncing ownership will leave the contract without an owner, thereby removing any functionality that is only available to the owner."
      },
      "transferOwnership(address)": {
        "details": "Transfers ownership of the contract to a new account (`newOwner`). Can only be called by the current owner."
      }
    },
    "version": 1
  },
  "userdoc": {
    "kind": "user",
    "methods": {},
    "version": 1
  }
}