{
  "contractName": "Wallet",
  "abi": [
    {
      "anonymous": false,
      "inputs": [
        {
          "indexed": true,
          "internalType": "address",
          "name": "previousOwner",
          "type": "address"
        },
        {
          "indexed": true,
          "internalType": "address",
          "name": "newOwner",
          "type": "address"
        }
      ],
      "name": "OwnershipTransferred",
      "type": "event"
    },
    {
      "inputs": [],
      "name": "owner",
      "outputs": [
        {
          "internalType": "address",
          "name": "",
          "type": "address"
        }
      ],
      "stateMutability": "view",
      "type": "function"
    },
    {
      "inputs": [],
      "name": "renounceOwnership",
      "outputs": [],
      "stateMutability": "nonpayable",
      "type": "function"
    },
    {
      "inputs": [
        {
          "internalType": "address",
          "name": "",
          "type": "address"
        },
        {
          "internalType": "bytes32",
          "name": "",
          "type": "bytes32"
        }
      ],
      "name": "tokenBalances",
      "outputs": [
        {
          "internalType": "uint256",
          "name": "",
          "type": "uint256"
        }
      ],
      "stateMutability": "view",
      "type": "function"
    },
    {
      "inputs": [
        {
          "internalType": "uint256",
          "name": "",
          "type": "uint256"
        }
      ],
      "name": "tokenList",
      "outputs": [
        {
          "internalType": "bytes32",
          "name": "",
          "type": "bytes32"
        }
      ],
      "stateMutability": "view",
      "type": "function"
    },
    {
      "inputs": [
        {
          "internalType": "bytes32",
          "name": "",
          "type": "bytes32"
        }
      ],
      "name": "tokens",
      "outputs": [
        {
          "internalType": "bytes32",
          "name": "ticker",
          "type": "bytes32"
        },
        {
          "internalType": "address",
          "name": "tokenAddress",
          "type": "address"
        }
      ],
      "stateMutability": "view",
      "type": "function"
    },
    {
      "inputs": [
        {
          "internalType": "address",
          "name": "newOwner",
          "type": "address"
        }
      ],
      "name": "transferOwnership",
      "outputs": [],
      "stateMutability": "nonpayable",
      "type": "function"
    },
    {
      "inputs": [
        {
          "internalType": "bytes32",
          "name": "ticker",
          "type": "bytes32"
        },
        {
          "internalType": "address",
          "name": "tokenAddress",
          "type": "address"
        }
      ],
      "name": "addToken",
      "outputs": [],
      "stateMutability": "nonpayable",
      "type": "function"
    },
    {
      "inputs": [
        {
          "internalType": "uint256",
          "name": "amount",
          "type": "uint256"
        },
        {
          "internalType": "bytes32",
          "name": "ticker",
          "type": "bytes32"
        }
      ],
      "name": "deposit",
      "outputs": [],
      "stateMutability": "nonpayable",
      "type": "function"
    },
    {
      "inputs": [
        {
          "internalType": "uint256",
          "name": "amount",
          "type": "uint256"
        },
        {
          "internalType": "bytes32",
          "name": "ticker",
          "type": "bytes32"
        }
      ],
      "name": "withdraw",
      "outputs": [],
      "stateMutability": "nonpayable",
      "type": "function"
    }
  ],
  "bytecode": "0x608060405234801561001057600080fd5b5060006100216100c460201b60201c565b9050806000806101000a81548173ffffffffffffffffffffffffffffffffffffffff021916908373ffffffffffffffffffffffffffffffffffffffff1602179055508073ffffffffffffffffffffffffffffffffffffffff16600073ffffffffffffffffffffffffffffffffffffffff167f8be0079c531659141344cd1fd0a4f28419497f9722a3daafe3b4186f6b6457e060405160405180910390a3506100cc565b600033905090565b6111e3806100db6000396000f3fe608060405234801561001057600080fd5b50600436106100935760003560e01c80639ead7222116100665780639ead72221461010d578063a8d2021a1461013d578063c9630cb014610159578063d520d23c14610175578063f2fde38b146101a557610093565b8063715018a6146100985780638da5cb5b146100a2578063904194a3146100c05780639776aacf146100f1575b600080fd5b6100a06101c1565b005b6100aa6102fb565b6040516100b79190610e11565b60405180910390f35b6100da60048036038101906100d59190610c8e565b610324565b6040516100e8929190610ea7565b60405180910390f35b61010b60048036038101906101069190610cb7565b610368565b005b61012760048036038101906101229190610cf3565b6104a3565b6040516101349190610e8c565b60405180910390f35b61015760048036038101906101529190610d1c565b6104c7565b005b610173600480360381019061016e9190610d1c565b610781565b005b61018f600480360381019061018a9190610c29565b6109aa565b60405161019c9190610f50565b60405180910390f35b6101bf60048036038101906101ba9190610c00565b6109cf565b005b6101c9610b78565b73ffffffffffffffffffffffffffffffffffffffff166101e76102fb565b73ffffffffffffffffffffffffffffffffffffffff161461023d576040517f08c379a000000000000000000000000000000000000000000000000000000000815260040161023490610f10565b60405180910390fd5b600073ffffffffffffffffffffffffffffffffffffffff1660008054906101000a900473ffffffffffffffffffffffffffffffffffffffff1673ffffffffffffffffffffffffffffffffffffffff167f8be0079c531659141344cd1fd0a4f28419497f9722a3daafe3b4186f6b6457e060405160405180910390a360008060006101000a81548173ffffffffffffffffffffffffffffffffffffffff021916908373ffffffffffffffffffffffffffffffffffffffff160217905550565b60008060009054906101000a900473ffffffffffffffffffffffffffffffffffffffff16905090565b60016020528060005260406000206000915090508060000154908060010160009054906101000a900473ffffffffffffffffffffffffffffffffffffffff16905082565b610370610b78565b73ffffffffffffffffffffffffffffffffffffffff1661038e6102fb565b73ffffffffffffffffffffffffffffffffffffffff16146103e4576040517f08c379a00000000000000000000000000000000000000000000000000000000081526004016103db90610f10565b60405180910390fd5b60405180604001604052808381526020018273ffffffffffffffffffffffffffffffffffffffff16815250600160008481526020019081526020016000206000820151816000015560208201518160010160006101000a81548173ffffffffffffffffffffffffffffffffffffffff021916908373ffffffffffffffffffffffffffffffffffffffff16021790555090505060028290806001815401808255809150506001900390600052602060002001600090919091909150555050565b600281815481106104b357600080fd5b906000526020600020016000915090505481565b80600073ffffffffffffffffffffffffffffffffffffffff166001600083815260200190815260200160002060010160009054906101000a900473ffffffffffffffffffffffffffffffffffffffff1673ffffffffffffffffffffffffffffffffffffffff16141561056e576040517f08c379a000000000000000000000000000000000000000000000000000000000815260040161056590610f30565b60405180910390fd5b82600360003373ffffffffffffffffffffffffffffffffffffffff1673ffffffffffffffffffffffffffffffffffffffff1681526020019081526020016000206000848152602001908152602001600020541015610601576040517f08c379a00000000000000000000000000000000000000000000000000000000081526004016105f890610ef0565b60405180910390fd5b6001600083815260200190815260200160002060010160009054906101000a900473ffffffffffffffffffffffffffffffffffffffff1673ffffffffffffffffffffffffffffffffffffffff1663a9059cbb33856040518363ffffffff1660e01b8152600401610672929190610e63565b602060405180830381600087803b15801561068c57600080fd5b505af11580156106a0573d6000803e3d6000fd5b505050506040513d601f19601f820116820180604052508101906106c49190610c65565b5061072883600360003373ffffffffffffffffffffffffffffffffffffffff1673ffffffffffffffffffffffffffffffffffffffff168152602001908152602001600020600085815260200190815260200160002054610b8090919063ffffffff16565b600360003373ffffffffffffffffffffffffffffffffffffffff1673ffffffffffffffffffffffffffffffffffffffff168152602001908152602001600020600084815260200190815260200160002081905550505050565b80600073ffffffffffffffffffffffffffffffffffffffff166001600083815260200190815260200160002060010160009054906101000a900473ffffffffffffffffffffffffffffffffffffffff1673ffffffffffffffffffffffffffffffffffffffff161415610828576040517f08c379a000000000000000000000000000000000000000000000000000000000815260040161081f90610f30565b60405180910390fd5b6001600083815260200190815260200160002060010160009054906101000a900473ffffffffffffffffffffffffffffffffffffffff1673ffffffffffffffffffffffffffffffffffffffff166323b872dd3330866040518463ffffffff1660e01b815260040161089b93929190610e2c565b602060405180830381600087803b1580156108b557600080fd5b505af11580156108c9573d6000803e3d6000fd5b505050506040513d601f19601f820116820180604052508101906108ed9190610c65565b5061095183600360003373ffffffffffffffffffffffffffffffffffffffff1673ffffffffffffffffffffffffffffffffffffffff168152602001908152602001600020600085815260200190815260200160002054610b9690919063ffffffff16565b600360003373ffffffffffffffffffffffffffffffffffffffff1673ffffffffffffffffffffffffffffffffffffffff168152602001908152602001600020600084815260200190815260200160002081905550505050565b6003602052816000526040600020602052806000526040600020600091509150505481565b6109d7610b78565b73ffffffffffffffffffffffffffffffffffffffff166109f56102fb565b73ffffffffffffffffffffffffffffffffffffffff1614610a4b576040517f08c379a0000000000000000000000000000000000000000000000000000000008152600401610a4290610f10565b60405180910390fd5b600073ffffffffffffffffffffffffffffffffffffffff168173ffffffffffffffffffffffffffffffffffffffff161415610abb576040517f08c379a0000000000000000000000000000000000000000000000000000000008152600401610ab290610ed0565b60405180910390fd5b8073ffffffffffffffffffffffffffffffffffffffff1660008054906101000a900473ffffffffffffffffffffffffffffffffffffffff1673ffffffffffffffffffffffffffffffffffffffff167f8be0079c531659141344cd1fd0a4f28419497f9722a3daafe3b4186f6b6457e060405160405180910390a3806000806101000a81548173ffffffffffffffffffffffffffffffffffffffff021916908373ffffffffffffffffffffffffffffffffffffffff16021790555050565b600033905090565b60008183610b8e9190610fd2565b905092915050565b60008183610ba49190610f7c565b905092915050565b600081359050610bbb81611151565b92915050565b600081519050610bd081611168565b92915050565b600081359050610be58161117f565b92915050565b600081359050610bfa81611196565b92915050565b600060208284031215610c1257600080fd5b6000610c2084828501610bac565b91505092915050565b60008060408385031215610c3c57600080fd5b6000610c4a85828601610bac565b9250506020610c5b85828601610bd6565b9150509250929050565b600060208284031215610c7757600080fd5b6000610c8584828501610bc1565b91505092915050565b600060208284031215610ca057600080fd5b6000610cae84828501610bd6565b91505092915050565b60008060408385031215610cca57600080fd5b6000610cd885828601610bd6565b9250506020610ce985828601610bac565b9150509250929050565b600060208284031215610d0557600080fd5b6000610d1384828501610beb565b91505092915050565b60008060408385031215610d2f57600080fd5b6000610d3d85828601610beb565b9250506020610d4e85828601610bd6565b9150509250929050565b610d6181611006565b82525050565b610d7081611024565b82525050565b6000610d83602683610f6b565b9150610d8e82611087565b604082019050919050565b6000610da6601483610f6b565b9150610db1826110d6565b602082019050919050565b6000610dc9602083610f6b565b9150610dd4826110ff565b602082019050919050565b6000610dec601583610f6b565b9150610df782611128565b602082019050919050565b610e0b8161104e565b82525050565b6000602082019050610e266000830184610d58565b92915050565b6000606082019050610e416000830186610d58565b610e4e6020830185610d58565b610e5b6040830184610e02565b949350505050565b6000604082019050610e786000830185610d58565b610e856020830184610e02565b9392505050565b6000602082019050610ea16000830184610d67565b92915050565b6000604082019050610ebc6000830185610d67565b610ec96020830184610d58565b9392505050565b60006020820190508181036000830152610ee981610d76565b9050919050565b60006020820190508181036000830152610f0981610d99565b9050919050565b60006020820190508181036000830152610f2981610dbc565b9050919050565b60006020820190508181036000830152610f4981610ddf565b9050919050565b6000602082019050610f656000830184610e02565b92915050565b600082825260208201905092915050565b6000610f878261104e565b9150610f928361104e565b9250827fffffffffffffffffffffffffffffffffffffffffffffffffffffffffffffffff03821115610fc757610fc6611058565b5b828201905092915050565b6000610fdd8261104e565b9150610fe88361104e565b925082821015610ffb57610ffa611058565b5b828203905092915050565b60006110118261102e565b9050919050565b60008115159050919050565b6000819050919050565b600073ffffffffffffffffffffffffffffffffffffffff82169050919050565b6000819050919050565b7f4e487b7100000000000000000000000000000000000000000000000000000000600052601160045260246000fd5b7f4f776e61626c653a206e6577206f776e657220697320746865207a65726f206160008201527f6464726573730000000000000000000000000000000000000000000000000000602082015250565b7f496e73756666696369656e742062616c616e6365000000000000000000000000600082015250565b7f4f776e61626c653a2063616c6c6572206973206e6f7420746865206f776e6572600082015250565b7f546f6b656e20646f6573206e6f74206578697374730000000000000000000000600082015250565b61115a81611006565b811461116557600080fd5b50565b61117181611018565b811461117c57600080fd5b50565b61118881611024565b811461119357600080fd5b50565b61119f8161104e565b81146111aa57600080fd5b5056fea2646970667358221220a68693fa13e7c6e33ce55101364f86efeea2c9e01f8c20c1ebe6e9e46ae86bdf64736f6c63430008040033",
  "immutableReferences": {},
  "source": "import \"../node_modules/@openzeppelin/contracts/token/ERC20/IERC20.sol\";\nimport \"../node_modules/@openzeppelin/contracts/utils/math/SafeMath.sol\";\nimport \"../node_modules/@openzeppelin/contracts/access/Ownable.sol\";\n\ncontract Wallet is Ownable {\n    using SafeMath for uint256;\n\n    // 1 token object needs to have the ticker and the contract address so we can interact with it\n    struct Token {\n        bytes32 ticker;\n        address tokenAddress;\n    }\n\n    // mapping the ticker to a token object\n    mapping(bytes32 => Token) public tokens;\n\n    //array for keeping track of the list of tokens we have\n    bytes32[] public tokenList;\n\n    // mapping to keep track of different token balances\n    //bytes32 is the ticker symbol for the token\n    mapping(address => mapping(bytes32 => uint256)) public tokenBalances;\n\n    // check if the token address is an initialized address => 0 addresses are not initialized\n    modifier TokenExists(bytes32 ticker) {\n        require(\n            tokens[ticker].tokenAddress != address(0),\n            \"Token does not exists\"\n        );\n        _;\n    }\n\n    function addToken(bytes32 ticker, address tokenAddress) external onlyOwner {\n        tokens[ticker] = Token(ticker, tokenAddress);\n        tokenList.push(ticker);\n    }\n\n    // here we need to interact with an ERC20 token contract (from openZeppelin)\n\n    // we need the user to be able to call the ERC20 contract to deposit to this contract\n    // we are asking the ERC20 contract to transfer from msg.sender to us\n    function deposit(uint256 amount, bytes32 ticker)\n        external\n        TokenExists(ticker)\n    {\n        IERC20(tokens[ticker].tokenAddress).transferFrom(\n            msg.sender,\n            address(this),\n            amount\n        );\n        tokenBalances[msg.sender][ticker] = tokenBalances[msg.sender][ticker]\n            .add(amount); // add amount to balance\n    }\n\n    // here we are withdrawing from our wallet to deposit to an ERC address\n    function withdraw(uint256 amount, bytes32 ticker)\n        external\n        TokenExists(ticker)\n    {\n        require(\n            tokenBalances[msg.sender][ticker] >= amount,\n            \"Insufficient balance\"\n        ); // cheking that we have enough balance to withdraw\n        IERC20(tokens[ticker].tokenAddress).transfer(msg.sender, amount); // use transfer function from IERC20\n        tokenBalances[msg.sender][ticker] = tokenBalances[msg.sender][ticker]\n            .sub(amount); // deduct amount from out balance\n    }\n}\n",
  "sourcePath": "/Users/cryptogirl/Documents/Solidity/DEX/contracts/Wallet.sol",
  "compiler": {
    "name": "solc",
    "version": "0.8.4+commit.c7e474f2.Emscripten.clang"
  },
  "schemaVersion": "3.3.3",
  "updatedAt": "2021-05-03T10:23:00.442Z",
  "devdoc": {
    "kind": "dev",
    "methods": {
      "owner()": {
        "details": "Returns the address of the current owner."
      },
      "renounceOwnership()": {
        "details": "Leaves the contract without owner. It will not be possible to call `onlyOwner` functions anymore. Can only be called by the current owner. NOTE: Renouncing ownership will leave the contract without an owner, thereby removing any functionality that is only available to the owner."
      },
      "transferOwnership(address)": {
        "details": "Transfers ownership of the contract to a new account (`newOwner`). Can only be called by the current owner."
      }
    },
    "version": 1
  },
  "userdoc": {
    "kind": "user",
    "methods": {},
    "version": 1
  }
}